:020000020000FC
:2000000000400034086008140800683A00000000000000000000000000000000000000003E
:2000080006C00074DEC0001406800074D6830C140080003410A3141400C0003418E31914CE
:2000100010C00326100000151080010410FFFD3600089A00003FFF06DEFFFF04DFC0001561
:20001800000861C0D1200017DFC00017DEC0010400086BC1DEFFFF04DFC00015000862C04C
:20002000D1200017DFC00017DEC0010400086BC1DEFFFF04DFC00015000854C0D120001773
:20002800DFC00017DEC0010400086BC1DEFFFF04DFC00015000855C0D1200017DFC00017BC
:20003000DEC0010400086BC1DEFF3904D9408304DFC0C61500083140D90083040008248020
:20003800D9008304D80B883A000839C0D809883A00086BC0DFC0C617DEC0C704F800283A8D
:20004000DEFFBC04D80B883ADFC0431500083140D809883A00081DC0D120001700086BC02B
:20004800DFC04317DEC04404F800283AD120001700086BC1DEFF670401000074DC4097159E
:200050002122DC0404400074DC009615DFC098150400014400089CC08C606104D809883A41
:2000580000086C00D809883A00088C0010BFFFC480801836100490BA1445883A10800017DD
:200060001000683A0000819C000081A4000081AC000081B4000081BC000081C80008058017
:20006800003FEE0600080740003FEC0600080900003FEA0600080AC0003FE806D900008429
:2000700000080C80003FE506D900008400081000003FE206000812C0003FE006DEFFFB043B
:20007800DCC00315DC80021524C0011724800017DC400115DC000015DFC004152400030484
:200080000023883A8C80090E8CC9883A8140000721003FCC2100201C213FE00400085A004A
:200088008C40004484000044003FF606DFC00417DCC00317DC800217DC400117DC00001739
:20009000DEC00504F800283ADEFFFB04DCC00315DC80021524C0011724800017DC40011563
:20009800DC000015DFC00415240003040023883A8C80090E8CC9883A21003FCC2100201CCC
:2000A000213FE00400085EC0808000058C40004484000044003FF606DFC00417DCC003174E
:2000A800DC800217DC400117DC000017DEC00504F800283A208000171007883A1000010EEC
:2000B00010C000C4180DD0BA20C00117214002171885883A18FFC00C1807D23A294003CCD6
:2000B8001145883A017FFD0410C5883A20C003042909C83A20CB883A2980040E1940000319
:2000C00018C000442885883A003FFA060085C83AF800283ADEFFFB04DFC00415DCC003152D
:2000C800DC8002152027883ADC400115DC0000152821883A000882009809883A808000156C
:2000D00000088300808001159809883A0008848004BFFD0480800215844003049425C83A9F
:2000D80080800017944B883A2880050E9809883A00088580888000058C400044003FF806CB
:2000E000DFC00417DCC00317DC800217DC400117DC000017DEC00504F800283ADEFFF8041A
:2000E800DFC00715DD800615DD400515DD000415DCC00315DC800215DC400115DC0000154E
:2000F0002023883A2821883A00082B4014C03FCC00800E8480800005890000170140004452
:2000F8009CC0201C00087FC08080004589000017000B883A053FFD0400087FC08080008546
:2001000089000117014000C49CFFE00400087FC0808000C589000117014000848C80030435
:2001080000087FC08080010589000117014000448540024400087FC080800145890001172B
:20011000000B883A8580028400087FC0808001858900021701400044A469C83A00087FC02D
:20011800808001C589000217000B883A00087FC08080020588C00017A485883A10C00C0E10
:2001200091000007014000449480004400087FC0A8800005913FFFC7000B883AAD40008402
:2001280000087FC0B0800005B5800084003FF10618C7883A1C8002449809883A01400044E1
:2001300000087FC084A5883A9080000588C000179809883A000B883A18C7883A1C80028416
:2001380084A5883A00087FC0908000058880001700C003441085883A8085883A10C002C585
:200140008880001700C002841085883A8085883A10C00305888000171085883A80A1883AEB
:2001480080000345DFC00717DD800617DD400517DD000417DCC00317DC800217DC40011708
:20015000DC000017DEC00804F800283A00801C0400C0004410C00035F800283A00801C04F5
:2001580010000035F800283A0080140400C0004410C00035F800283A008014041000003510
:20016000F800283A0080100400C0004410C00035F800283A0080100410000035F800283AFB
:2001680021003FCC2100201C213FE004008004041100003529403FCC2940201C297FE00437
:20017000008008041140003500C000440080140410C000350100100420C000350007883AC9
:2001780020C0003510C00035F800283A21003FCC2100201C213FE004008004041100003558
:200180000080100400C0004410C000351000003500800C0410800037F800283A0080180430
:2001880000C0004410C00035F800283A0080180410000035F800283A000895C1DEFFFA0480
:20019000DD000415DCC00315DC800215DC400115DC000015DFC005152023883A0021883A6E
:20019800000895C004C0034404800284050017C414C00A1E8C21883A80000005DFC005174A
:2001A000DD000417DCC00317DC800217DC400117DC000017DEC00604F800283A14BFF52605
:2001A800150003268C07883A1880000584000044000895C0003FEE0600089CC100089CC1E5
:2001B000000863C1213FF40421003FCC00800584110005360080007410A2EC841109883A38
:2001B80020800007F800283A00BFFFC4F800283A21003FCC2100201CDEFFFD04213FE0049F
:2001C000DFC00215DC400115DC0000152823883A00086C4089003FCC2100201C213FE00450
:2001C8001021883A00086C401007883A00BFFFC480800426188005268004913A10C5883A42
:2001D000000003068005883A000001061805883ADFC00217DC400117DC000017DEC0030455
:2001D800F800283A21003FCC29403FCC2100201C2940201CDEFFFC04213FE004297FE0045E
:2001E000DFC00315DC800215DC4001153025883A3823883ADC00001500086F0091003FCC6B
:2001E80089403FCC2100201C2940201C213FE004297FE0041021883A00086F001007883A0E
:2001F00000BFFFC480800426188005268004923A10C5883A000003068005883A0000010642
:2001F8001805883ADFC00317DC800217DC400117DC000017DEC00404F800283A294B883A7D
:20020000294B883A2149D83A214003CC010000742122E884214B883A28800003F800283AA5
:200208002005883A114000872100004700086F012005883A11400107210000C71180014736
:2002100011C00187000876412005883A11400207210001C700086F01294B883ADEFFFF04FE
:2002180029400244DFC00015214B883A290000072940004700086F00DFC00017DEC0010485
:20022000F800283ADEFFFE04DFC00115DC0000152021883A000882001085883A1080024425
:200228008085883A110000071140004700086F00DFC00117DC000017DEC00204F800283A20
:20023000208000071006923A208000471885883A00D0548410C00C2600D3948410C00C2648
:2002380000D050C410C00C2600D390C410C00C2600D4934410C00C2600D5D34410C00C26FC
:2002400000BFFFC4F800283A00800044F800283A00800084F800283A008000C4F800283AA8
:2002480000800104F800283A00800144F800283A00800184F800283A21003FCC2100201CB0
:20025000213FE0042008923A28803FCC1080201C10BFE0042085883AF800283A008000746F
:2002580010A2F60411C00217DEFFFE040100007421230D04D80B883A01800044DFC0011528
:200260000008A2800080020ED88000070000010600BFFFC4DFC00117DEC00204F800283A27
:20026800DEFFFF040009883ADFC000150008A0400008A240D1200A17D1600917D1A0081752
:20027000DFC00017DEC0010400081341DEFFFE04DC000015DFC001152021883A0008B54034
:200278000100007421230D04800B883A100D883A000F883ADFC00117DC000017DEC0020451
:200280000008AB41DEFFFF04DFC000150008B4C0008000441001703ADFC00017DEC0010482
:20028800F800283AF800283A39D0000C20C0001718C00204188000371800003510C0200CA0
:200290001800021E383FF9260000070620C0001718C0003728C00005108000CC103FF91EBE
:2002980000800044F800283A0080007410A313041080001710000926DEFFFF04DFC00015F0
:2002A000103EE83A00C002C410C000150005883ADFC00017DEC00104F800283A00800074F5
:2002A80010A3180400C002C410C000150005883AF800283ADEFFFD04DC400115DC000015DA
:2002B000DFC002153023883A39D0000C3021883A2080001710C0023718C0100C1800052644
:2002B80028C000442940000711400135843FFFC4180B883A3800021E803FF51E00000B065D
:2002C00080000A260080007410A313041080001710000226103EE83A000002060080007465
:2002C80010A3180400C002C410C000158C05C83ADFC00217DC400117DC000017DEC00304C5
:2002D000F800283A3005883AF800283A000170FAF800283A2005883A10C0000718000226A0
:2002D80010800044003FFC061105C83AF800283A6C6C654854202C6F207369685420736937
:2002E00020796E695350494D6E6F6D20726F7469000A0D213030303A303030300D464631A1
:2002E8003130000A353433323938373644434241010046450504030209080706FFFFFFFF21
:2002F0000AFFFFFF0E0D0C0B0000000F7665642F6C756E2F0000006C00008C0800000000BA
:2002F8000000000000008C08000000000000000000008C08000000000000000000000000BE
:20030000000000000000000000008C3C00008C3C00008BCC000000000000000000000000F6
:2003080000008B4400000000000000000000000000008B9400000200FFFFFFFF00008C0855
:2003100000008C0800008C4400008C44000000000000000000000000000000000000000099
:200318000000000000000000000000000000000000000000000000000000000000000000C5
:200320000000000000000000000000000000000000000000000000000000000000000000BD
:200328000000000000000000000000000000000000000000000000000000000000000000B5
:200330000000000000000000000000000000000000000000000000000000000000000000AD
:00000001FF
